{
  "abi": [
    {
      "inputs": [
        {
          "internalType": "address",
          "name": "_priceFeed",
          "type": "address"
        },
        {
          "internalType": "address",
          "name": "_vrfCoordinator",
          "type": "address"
        },
        {
          "internalType": "address",
          "name": "_link",
          "type": "address"
        },
        {
          "internalType": "uint256",
          "name": "_fee",
          "type": "uint256"
        },
        {
          "internalType": "bytes32",
          "name": "_keyhash",
          "type": "bytes32"
        }
      ],
      "stateMutability": "nonpayable",
      "type": "constructor"
    },
    {
      "anonymous": false,
      "inputs": [
        {
          "indexed": true,
          "internalType": "address",
          "name": "previousOwner",
          "type": "address"
        },
        {
          "indexed": true,
          "internalType": "address",
          "name": "newOwner",
          "type": "address"
        }
      ],
      "name": "OwnershipTransferred",
      "type": "event"
    },
    {
      "anonymous": false,
      "inputs": [
        {
          "indexed": false,
          "internalType": "bytes32",
          "name": "requestId",
          "type": "bytes32"
        }
      ],
      "name": "requestedRandomness",
      "type": "event"
    },
    {
      "inputs": [],
      "name": "endLottery",
      "outputs": [],
      "stateMutability": "nonpayable",
      "type": "function"
    },
    {
      "inputs": [],
      "name": "enter",
      "outputs": [],
      "stateMutability": "payable",
      "type": "function"
    },
    {
      "inputs": [],
      "name": "fee",
      "outputs": [
        {
          "internalType": "uint256",
          "name": "",
          "type": "uint256"
        }
      ],
      "stateMutability": "view",
      "type": "function"
    },
    {
      "inputs": [
        {
          "internalType": "uint256",
          "name": "ethAmount",
          "type": "uint256"
        }
      ],
      "name": "getConversionRate",
      "outputs": [
        {
          "internalType": "uint256",
          "name": "",
          "type": "uint256"
        }
      ],
      "stateMutability": "view",
      "type": "function"
    },
    {
      "inputs": [],
      "name": "getEntranceFee",
      "outputs": [
        {
          "internalType": "uint256",
          "name": "",
          "type": "uint256"
        }
      ],
      "stateMutability": "view",
      "type": "function"
    },
    {
      "inputs": [],
      "name": "getPrice",
      "outputs": [
        {
          "internalType": "uint256",
          "name": "",
          "type": "uint256"
        }
      ],
      "stateMutability": "view",
      "type": "function"
    },
    {
      "inputs": [],
      "name": "keyhash",
      "outputs": [
        {
          "internalType": "bytes32",
          "name": "",
          "type": "bytes32"
        }
      ],
      "stateMutability": "view",
      "type": "function"
    },
    {
      "inputs": [],
      "name": "lottery_state",
      "outputs": [
        {
          "internalType": "enum Lottery.LOTTERY_STATE",
          "name": "",
          "type": "uint8"
        }
      ],
      "stateMutability": "view",
      "type": "function"
    },
    {
      "inputs": [],
      "name": "minimumUsd",
      "outputs": [
        {
          "internalType": "uint256",
          "name": "",
          "type": "uint256"
        }
      ],
      "stateMutability": "view",
      "type": "function"
    },
    {
      "inputs": [],
      "name": "owner",
      "outputs": [
        {
          "internalType": "address",
          "name": "",
          "type": "address"
        }
      ],
      "stateMutability": "view",
      "type": "function"
    },
    {
      "inputs": [
        {
          "internalType": "uint256",
          "name": "",
          "type": "uint256"
        }
      ],
      "name": "players",
      "outputs": [
        {
          "internalType": "address payable",
          "name": "",
          "type": "address"
        }
      ],
      "stateMutability": "view",
      "type": "function"
    },
    {
      "inputs": [],
      "name": "priceFeed",
      "outputs": [
        {
          "internalType": "contract AggregatorV3Interface",
          "name": "",
          "type": "address"
        }
      ],
      "stateMutability": "view",
      "type": "function"
    },
    {
      "inputs": [
        {
          "internalType": "bytes32",
          "name": "requestId",
          "type": "bytes32"
        },
        {
          "internalType": "uint256",
          "name": "randomness",
          "type": "uint256"
        }
      ],
      "name": "rawFulfillRandomness",
      "outputs": [],
      "stateMutability": "nonpayable",
      "type": "function"
    },
    {
      "inputs": [],
      "name": "recentWinner",
      "outputs": [
        {
          "internalType": "address payable",
          "name": "",
          "type": "address"
        }
      ],
      "stateMutability": "view",
      "type": "function"
    },
    {
      "inputs": [],
      "name": "renounceOwnership",
      "outputs": [],
      "stateMutability": "nonpayable",
      "type": "function"
    },
    {
      "inputs": [],
      "name": "startLottery",
      "outputs": [],
      "stateMutability": "nonpayable",
      "type": "function"
    },
    {
      "inputs": [
        {
          "internalType": "address",
          "name": "newOwner",
          "type": "address"
        }
      ],
      "name": "transferOwnership",
      "outputs": [],
      "stateMutability": "nonpayable",
      "type": "function"
    }
  ],
  "bytecode": "60c060405234801561001057600080fd5b50604051610eed380380610eed833981810160405260a081101561003357600080fd5b508051602082015160408301516060808501516080958601516001600160601b031985841b811660a0529284901b909216909552929391929091906000610078610117565b600180546001600160a01b0319166001600160a01b038316908117909155604051919250906000907f8be0079c531659141344cd1fd0a4f28419497f9722a3daafe3b4186f6b6457e0908290a350600380546001600160a01b0319166001600160a01b038716178082556802b5e3af16b18800006002556001919060ff60a01b1916600160a01b8302179055506004919091556005555061011b915050565b3390565b60805160601c60a05160601c610da4610149600039806105be528061090b5250806108dc5250610da46000f3fe6080604052600436106100fe5760003560e01c8063741bef1a1161009557806398d5fdca1161006457806398d5fdca14610280578063ddca3f4314610295578063e97dcb62146102aa578063f2fde38b146102b2578063f71d96cb146102e5576100fe565b8063741bef1a146101f057806381447999146102055780638da5cb5b1461023b57806394985ddd14610250576100fe565b80634f8c70cf116100d15780634f8c70cf1461016b57806369ebe78e1461019c5780636e5b6b28146101b1578063715018a6146101db576100fe565b8063098de8201461010357806309bc33a71461012a5780631593a8c71461013f578063160344e214610156575b600080fd5b34801561010f57600080fd5b5061011861030f565b60408051918252519081900360200190f35b34801561013657600080fd5b50610118610315565b34801561014b57600080fd5b50610154610344565b005b34801561016257600080fd5b50610154610417565b34801561017757600080fd5b50610180610492565b604080516001600160a01b039092168252519081900360200190f35b3480156101a857600080fd5b506101186104a1565b3480156101bd57600080fd5b50610118600480360360208110156101d457600080fd5b50356104a7565b3480156101e757600080fd5b506101546104c7565b3480156101fc57600080fd5b50610180610585565b34801561021157600080fd5b5061021a610594565b6040518082600281111561022a57fe5b815260200191505060405180910390f35b34801561024757600080fd5b506101806105a4565b34801561025c57600080fd5b506101546004803603604081101561027357600080fd5b50803590602001356105b3565b34801561028c57600080fd5b5061011861063e565b3480156102a157600080fd5b506101186106cb565b6101546106d1565b3480156102be57600080fd5b50610154600480360360208110156102d557600080fd5b50356001600160a01b0316610798565b3480156102f157600080fd5b506101806004803603602081101561030857600080fd5b50356108ad565b60025481565b60008061032061063e565b90506000670de0b6b3a764000090508181600254028161033c57fe5b049250505090565b61034c6108d4565b6001600160a01b031661035d6105a4565b6001600160a01b0316146103b8576040805162461bcd60e51b815260206004820181905260248201527f4f776e61626c653a2063616c6c6572206973206e6f7420746865206f776e6572604482015290519081900360640190fd5b6003805460ff60a01b1916600160a11b1790556005546004546000916103dd916108d8565b6040805182815290519192507f55ed974a51aa5443394b8136510c290cd2f01456cf37dec995cc0cc574a78173919081900360200190a150565b6001600354600160a01b900460ff16600281111561043157fe5b14610483576040805162461bcd60e51b815260206004820152601d60248201527f43616e27742073746172742061206e6577206c6f747465727920796574000000604482015290519081900360640190fd5b6003805460ff60a01b19169055565b6007546001600160a01b031681565b60055481565b6000806104b261063e565b670de0b6b3a764000093029290920492915050565b6104cf6108d4565b6001600160a01b03166104e06105a4565b6001600160a01b03161461053b576040805162461bcd60e51b815260206004820181905260248201527f4f776e61626c653a2063616c6c6572206973206e6f7420746865206f776e6572604482015290519081900360640190fd5b6001546040516000916001600160a01b0316907f8be0079c531659141344cd1fd0a4f28419497f9722a3daafe3b4186f6b6457e0908390a3600180546001600160a01b0319169055565b6003546001600160a01b031681565b600354600160a01b900460ff1681565b6001546001600160a01b031690565b336001600160a01b037f00000000000000000000000000000000000000000000000000000000000000001614610630576040805162461bcd60e51b815260206004820152601f60248201527f4f6e6c7920565246436f6f7264696e61746f722063616e2066756c66696c6c00604482015290519081900360640190fd5b61063a8282610a8b565b5050565b600080600360009054906101000a90046001600160a01b03166001600160a01b031663feaf968c6040518163ffffffff1660e01b815260040160a06040518083038186803b15801561068f57600080fd5b505afa1580156106a3573d6000803e3d6000fd5b505050506040513d60a08110156106b957600080fd5b50602001516402540be4000291505090565b60045481565b6000600354600160a01b900460ff1660028111156106eb57fe5b146106f557600080fd5b600254610701346104a7565b1015610754576040805162461bcd60e51b815260206004820152601b60248201527f596f75206e65656420746f207370656e64206d6f726520455448210000000000604482015290519081900360640190fd5b600680546001810182556000919091527ff652222313e28459528d920b65115c16c04f3efc82aaedc97be59f3f377c0d3f0180546001600160a01b03191633179055565b6107a06108d4565b6001600160a01b03166107b16105a4565b6001600160a01b03161461080c576040805162461bcd60e51b815260206004820181905260248201527f4f776e61626c653a2063616c6c6572206973206e6f7420746865206f776e6572604482015290519081900360640190fd5b6001600160a01b0381166108515760405162461bcd60e51b8152600401808060200182810382526026815260200180610d496026913960400191505060405180910390fd5b6001546040516001600160a01b038084169216907f8be0079c531659141344cd1fd0a4f28419497f9722a3daafe3b4186f6b6457e090600090a3600180546001600160a01b0319166001600160a01b0392909216919091179055565b600681815481106108ba57fe5b6000918252602090912001546001600160a01b0316905081565b3390565b60007f00000000000000000000000000000000000000000000000000000000000000006001600160a01b0316634000aea07f00000000000000000000000000000000000000000000000000000000000000008486600060405160200180838152602001828152602001925050506040516020818303038152906040526040518463ffffffff1660e01b815260040180846001600160a01b0316815260200183815260200180602001828103825283818151815260200191508051906020019080838360005b838110156109b557818101518382015260200161099d565b50505050905090810190601f1680156109e25780820380516001836020036101000a031916815260200191505b50945050505050602060405180830381600087803b158015610a0357600080fd5b505af1158015610a17573d6000803e3d6000fd5b505050506040513d6020811015610a2d57600080fd5b5050600083815260208190526040812054610a4d90859083903090610bf0565b600085815260208190526040902054909150610a6a906001610c37565b600085815260208190526040902055610a838482610c98565b949350505050565b6002600354600160a01b900460ff166002811115610aa557fe5b14610af0576040805162461bcd60e51b8152602060048201526016602482015275596f75206172656e277420746865726520796574202160501b604482015290519081900360640190fd5b60008111610b45576040805162461bcd60e51b815260206004820152601760248201527f4e6f2072616e646f6d206e756d62657220666f756e642e000000000000000000604482015290519081900360640190fd5b6006546000908281610b5357fe5b06905060068181548110610b6357fe5b6000918252602082200154600780546001600160a01b0319166001600160a01b0392831617908190556040519116914780156108fc02929091818181858888f19350505050158015610bb9573d6000803e3d6000fd5b506040805160008152602081019182905251610bd791600691610cc4565b50506003805460ff60a01b1916600160a01b1790555050565b60408051602080820196909652808201949094526001600160a01b039290921660608401526080808401919091528151808403909101815260a09092019052805191012090565b600082820183811015610c91576040805162461bcd60e51b815260206004820152601b60248201527f536166654d6174683a206164646974696f6e206f766572666c6f770000000000604482015290519081900360640190fd5b9392505050565b604080516020808201949094528082019290925280518083038201815260609092019052805191012090565b828054828255906000526020600020908101928215610d19579160200282015b82811115610d1957825182546001600160a01b0319166001600160a01b03909116178255602090920191600190910190610ce4565b50610d25929150610d29565b5090565b5b80821115610d255780546001600160a01b0319168155600101610d2a56fe4f776e61626c653a206e6577206f776e657220697320746865207a65726f2061646472657373a2646970667358221220cfee0db438da1e340e9c13f7d8d889f06b224c4c2a9f69e20f685c8047dba2ba64736f6c634300060c0033",
  "bytecodeSha1": "8a7b7f7f3f1672b904ae86089968ada96445fe14",
  "compiler": {
    "evm_version": "istanbul",
    "optimizer": {
      "enabled": true,
      "runs": 200
    },
    "version": "0.6.12+commit.27d51765"
  },
  "contractName": "Lottery",
  "language": "Solidity",
  "natspec": {
    "kind": "dev",
    "methods": {
      "owner()": {
        "details": "Returns the address of the current owner."
      },
      "renounceOwnership()": {
        "details": "Leaves the contract without owner. It will not be possible to call `onlyOwner` functions anymore. Can only be called by the current owner. NOTE: Renouncing ownership will leave the contract without an owner, thereby removing any functionality that is only available to the owner."
      },
      "transferOwnership(address)": {
        "details": "Transfers ownership of the contract to a new account (`newOwner`). Can only be called by the current owner."
      }
    },
    "version": 1
  },
  "opcodes": "PUSH1 0x80 PUSH1 0x40 MSTORE PUSH1 0x4 CALLDATASIZE LT PUSH2 0xFE JUMPI PUSH1 0x0 CALLDATALOAD PUSH1 0xE0 SHR DUP1 PUSH4 0x741BEF1A GT PUSH2 0x95 JUMPI DUP1 PUSH4 0x98D5FDCA GT PUSH2 0x64 JUMPI DUP1 PUSH4 0x98D5FDCA EQ PUSH2 0x280 JUMPI DUP1 PUSH4 0xDDCA3F43 EQ PUSH2 0x295 JUMPI DUP1 PUSH4 0xE97DCB62 EQ PUSH2 0x2AA JUMPI DUP1 PUSH4 0xF2FDE38B EQ PUSH2 0x2B2 JUMPI DUP1 PUSH4 0xF71D96CB EQ PUSH2 0x2E5 JUMPI PUSH2 0xFE JUMP JUMPDEST DUP1 PUSH4 0x741BEF1A EQ PUSH2 0x1F0 JUMPI DUP1 PUSH4 0x81447999 EQ PUSH2 0x205 JUMPI DUP1 PUSH4 0x8DA5CB5B EQ PUSH2 0x23B JUMPI DUP1 PUSH4 0x94985DDD EQ PUSH2 0x250 JUMPI PUSH2 0xFE JUMP JUMPDEST DUP1 PUSH4 0x4F8C70CF GT PUSH2 0xD1 JUMPI DUP1 PUSH4 0x4F8C70CF EQ PUSH2 0x16B JUMPI DUP1 PUSH4 0x69EBE78E EQ PUSH2 0x19C JUMPI DUP1 PUSH4 0x6E5B6B28 EQ PUSH2 0x1B1 JUMPI DUP1 PUSH4 0x715018A6 EQ PUSH2 0x1DB JUMPI PUSH2 0xFE JUMP JUMPDEST DUP1 PUSH4 0x98DE820 EQ PUSH2 0x103 JUMPI DUP1 PUSH4 0x9BC33A7 EQ PUSH2 0x12A JUMPI DUP1 PUSH4 0x1593A8C7 EQ PUSH2 0x13F JUMPI DUP1 PUSH4 0x160344E2 EQ PUSH2 0x156 JUMPI JUMPDEST PUSH1 0x0 DUP1 REVERT JUMPDEST CALLVALUE DUP1 ISZERO PUSH2 0x10F JUMPI PUSH1 0x0 DUP1 REVERT JUMPDEST POP PUSH2 0x118 PUSH2 0x30F JUMP JUMPDEST PUSH1 0x40 DUP1 MLOAD SWAP2 DUP3 MSTORE MLOAD SWAP1 DUP2 SWAP1 SUB PUSH1 0x20 ADD SWAP1 RETURN JUMPDEST CALLVALUE DUP1 ISZERO PUSH2 0x136 JUMPI PUSH1 0x0 DUP1 REVERT JUMPDEST POP PUSH2 0x118 PUSH2 0x315 JUMP JUMPDEST CALLVALUE DUP1 ISZERO PUSH2 0x14B JUMPI PUSH1 0x0 DUP1 REVERT JUMPDEST POP PUSH2 0x154 PUSH2 0x344 JUMP JUMPDEST STOP JUMPDEST CALLVALUE DUP1 ISZERO PUSH2 0x162 JUMPI PUSH1 0x0 DUP1 REVERT JUMPDEST POP PUSH2 0x154 PUSH2 0x417 JUMP JUMPDEST CALLVALUE DUP1 ISZERO PUSH2 0x177 JUMPI PUSH1 0x0 DUP1 REVERT JUMPDEST POP PUSH2 0x180 PUSH2 0x492 JUMP JUMPDEST PUSH1 0x40 DUP1 MLOAD PUSH1 0x1 PUSH1 0x1 PUSH1 0xA0 SHL SUB SWAP1 SWAP3 AND DUP3 MSTORE MLOAD SWAP1 DUP2 SWAP1 SUB PUSH1 0x20 ADD SWAP1 RETURN JUMPDEST CALLVALUE DUP1 ISZERO PUSH2 0x1A8 JUMPI PUSH1 0x0 DUP1 REVERT JUMPDEST POP PUSH2 0x118 PUSH2 0x4A1 JUMP JUMPDEST CALLVALUE DUP1 ISZERO PUSH2 0x1BD JUMPI PUSH1 0x0 DUP1 REVERT JUMPDEST POP PUSH2 0x118 PUSH1 0x4 DUP1 CALLDATASIZE SUB PUSH1 0x20 DUP2 LT ISZERO PUSH2 0x1D4 JUMPI PUSH1 0x0 DUP1 REVERT JUMPDEST POP CALLDATALOAD PUSH2 0x4A7 JUMP JUMPDEST CALLVALUE DUP1 ISZERO PUSH2 0x1E7 JUMPI PUSH1 0x0 DUP1 REVERT JUMPDEST POP PUSH2 0x154 PUSH2 0x4C7 JUMP JUMPDEST CALLVALUE DUP1 ISZERO PUSH2 0x1FC JUMPI PUSH1 0x0 DUP1 REVERT JUMPDEST POP PUSH2 0x180 PUSH2 0x585 JUMP JUMPDEST CALLVALUE DUP1 ISZERO PUSH2 0x211 JUMPI PUSH1 0x0 DUP1 REVERT JUMPDEST POP PUSH2 0x21A PUSH2 0x594 JUMP JUMPDEST PUSH1 0x40 MLOAD DUP1 DUP3 PUSH1 0x2 DUP2 GT ISZERO PUSH2 0x22A JUMPI INVALID JUMPDEST DUP2 MSTORE PUSH1 0x20 ADD SWAP2 POP POP PUSH1 0x40 MLOAD DUP1 SWAP2 SUB SWAP1 RETURN JUMPDEST CALLVALUE DUP1 ISZERO PUSH2 0x247 JUMPI PUSH1 0x0 DUP1 REVERT JUMPDEST POP PUSH2 0x180 PUSH2 0x5A4 JUMP JUMPDEST CALLVALUE DUP1 ISZERO PUSH2 0x25C JUMPI PUSH1 0x0 DUP1 REVERT JUMPDEST POP PUSH2 0x154 PUSH1 0x4 DUP1 CALLDATASIZE SUB PUSH1 0x40 DUP2 LT ISZERO PUSH2 0x273 JUMPI PUSH1 0x0 DUP1 REVERT JUMPDEST POP DUP1 CALLDATALOAD SWAP1 PUSH1 0x20 ADD CALLDATALOAD PUSH2 0x5B3 JUMP JUMPDEST CALLVALUE DUP1 ISZERO PUSH2 0x28C JUMPI PUSH1 0x0 DUP1 REVERT JUMPDEST POP PUSH2 0x118 PUSH2 0x63E JUMP JUMPDEST CALLVALUE DUP1 ISZERO PUSH2 0x2A1 JUMPI PUSH1 0x0 DUP1 REVERT JUMPDEST POP PUSH2 0x118 PUSH2 0x6CB JUMP JUMPDEST PUSH2 0x154 PUSH2 0x6D1 JUMP JUMPDEST CALLVALUE DUP1 ISZERO PUSH2 0x2BE JUMPI PUSH1 0x0 DUP1 REVERT JUMPDEST POP PUSH2 0x154 PUSH1 0x4 DUP1 CALLDATASIZE SUB PUSH1 0x20 DUP2 LT ISZERO PUSH2 0x2D5 JUMPI PUSH1 0x0 DUP1 REVERT JUMPDEST POP CALLDATALOAD PUSH1 0x1 PUSH1 0x1 PUSH1 0xA0 SHL SUB AND PUSH2 0x798 JUMP JUMPDEST CALLVALUE DUP1 ISZERO PUSH2 0x2F1 JUMPI PUSH1 0x0 DUP1 REVERT JUMPDEST POP PUSH2 0x180 PUSH1 0x4 DUP1 CALLDATASIZE SUB PUSH1 0x20 DUP2 LT ISZERO PUSH2 0x308 JUMPI PUSH1 0x0 DUP1 REVERT JUMPDEST POP CALLDATALOAD PUSH2 0x8AD JUMP JUMPDEST PUSH1 0x2 SLOAD DUP2 JUMP JUMPDEST PUSH1 0x0 DUP1 PUSH2 0x320 PUSH2 0x63E JUMP JUMPDEST SWAP1 POP PUSH1 0x0 PUSH8 0xDE0B6B3A7640000 SWAP1 POP DUP2 DUP2 PUSH1 0x2 SLOAD MUL DUP2 PUSH2 0x33C JUMPI INVALID JUMPDEST DIV SWAP3 POP POP POP SWAP1 JUMP JUMPDEST PUSH2 0x34C PUSH2 0x8D4 JUMP JUMPDEST PUSH1 0x1 PUSH1 0x1 PUSH1 0xA0 SHL SUB AND PUSH2 0x35D PUSH2 0x5A4 JUMP JUMPDEST PUSH1 0x1 PUSH1 0x1 PUSH1 0xA0 SHL SUB AND EQ PUSH2 0x3B8 JUMPI PUSH1 0x40 DUP1 MLOAD PUSH3 0x461BCD PUSH1 0xE5 SHL DUP2 MSTORE PUSH1 0x20 PUSH1 0x4 DUP3 ADD DUP2 SWAP1 MSTORE PUSH1 0x24 DUP3 ADD MSTORE PUSH32 0x4F776E61626C653A2063616C6C6572206973206E6F7420746865206F776E6572 PUSH1 0x44 DUP3 ADD MSTORE SWAP1 MLOAD SWAP1 DUP2 SWAP1 SUB PUSH1 0x64 ADD SWAP1 REVERT JUMPDEST PUSH1 0x3 DUP1 SLOAD PUSH1 0xFF PUSH1 0xA0 SHL NOT AND PUSH1 0x1 PUSH1 0xA1 SHL OR SWAP1 SSTORE PUSH1 0x5 SLOAD PUSH1 0x4 SLOAD PUSH1 0x0 SWAP2 PUSH2 0x3DD SWAP2 PUSH2 0x8D8 JUMP JUMPDEST PUSH1 0x40 DUP1 MLOAD DUP3 DUP2 MSTORE SWAP1 MLOAD SWAP2 SWAP3 POP PUSH32 0x55ED974A51AA5443394B8136510C290CD2F01456CF37DEC995CC0CC574A78173 SWAP2 SWAP1 DUP2 SWAP1 SUB PUSH1 0x20 ADD SWAP1 LOG1 POP JUMP JUMPDEST PUSH1 0x1 PUSH1 0x3 SLOAD PUSH1 0x1 PUSH1 0xA0 SHL SWAP1 DIV PUSH1 0xFF AND PUSH1 0x2 DUP2 GT ISZERO PUSH2 0x431 JUMPI INVALID JUMPDEST EQ PUSH2 0x483 JUMPI PUSH1 0x40 DUP1 MLOAD PUSH3 0x461BCD PUSH1 0xE5 SHL DUP2 MSTORE PUSH1 0x20 PUSH1 0x4 DUP3 ADD MSTORE PUSH1 0x1D PUSH1 0x24 DUP3 ADD MSTORE PUSH32 0x43616E27742073746172742061206E6577206C6F747465727920796574000000 PUSH1 0x44 DUP3 ADD MSTORE SWAP1 MLOAD SWAP1 DUP2 SWAP1 SUB PUSH1 0x64 ADD SWAP1 REVERT JUMPDEST PUSH1 0x3 DUP1 SLOAD PUSH1 0xFF PUSH1 0xA0 SHL NOT AND SWAP1 SSTORE JUMP JUMPDEST PUSH1 0x7 SLOAD PUSH1 0x1 PUSH1 0x1 PUSH1 0xA0 SHL SUB AND DUP2 JUMP JUMPDEST PUSH1 0x5 SLOAD DUP2 JUMP JUMPDEST PUSH1 0x0 DUP1 PUSH2 0x4B2 PUSH2 0x63E JUMP JUMPDEST PUSH8 0xDE0B6B3A7640000 SWAP4 MUL SWAP3 SWAP1 SWAP3 DIV SWAP3 SWAP2 POP POP JUMP JUMPDEST PUSH2 0x4CF PUSH2 0x8D4 JUMP JUMPDEST PUSH1 0x1 PUSH1 0x1 PUSH1 0xA0 SHL SUB AND PUSH2 0x4E0 PUSH2 0x5A4 JUMP JUMPDEST PUSH1 0x1 PUSH1 0x1 PUSH1 0xA0 SHL SUB AND EQ PUSH2 0x53B JUMPI PUSH1 0x40 DUP1 MLOAD PUSH3 0x461BCD PUSH1 0xE5 SHL DUP2 MSTORE PUSH1 0x20 PUSH1 0x4 DUP3 ADD DUP2 SWAP1 MSTORE PUSH1 0x24 DUP3 ADD MSTORE PUSH32 0x4F776E61626C653A2063616C6C6572206973206E6F7420746865206F776E6572 PUSH1 0x44 DUP3 ADD MSTORE SWAP1 MLOAD SWAP1 DUP2 SWAP1 SUB PUSH1 0x64 ADD SWAP1 REVERT JUMPDEST PUSH1 0x1 SLOAD PUSH1 0x40 MLOAD PUSH1 0x0 SWAP2 PUSH1 0x1 PUSH1 0x1 PUSH1 0xA0 SHL SUB AND SWAP1 PUSH32 0x8BE0079C531659141344CD1FD0A4F28419497F9722A3DAAFE3B4186F6B6457E0 SWAP1 DUP4 SWAP1 LOG3 PUSH1 0x1 DUP1 SLOAD PUSH1 0x1 PUSH1 0x1 PUSH1 0xA0 SHL SUB NOT AND SWAP1 SSTORE JUMP JUMPDEST PUSH1 0x3 SLOAD PUSH1 0x1 PUSH1 0x1 PUSH1 0xA0 SHL SUB AND DUP2 JUMP JUMPDEST PUSH1 0x3 SLOAD PUSH1 0x1 PUSH1 0xA0 SHL SWAP1 DIV PUSH1 0xFF AND DUP2 JUMP JUMPDEST PUSH1 0x1 SLOAD PUSH1 0x1 PUSH1 0x1 PUSH1 0xA0 SHL SUB AND SWAP1 JUMP JUMPDEST CALLER PUSH1 0x1 PUSH1 0x1 PUSH1 0xA0 SHL SUB PUSH32 0x0 AND EQ PUSH2 0x630 JUMPI PUSH1 0x40 DUP1 MLOAD PUSH3 0x461BCD PUSH1 0xE5 SHL DUP2 MSTORE PUSH1 0x20 PUSH1 0x4 DUP3 ADD MSTORE PUSH1 0x1F PUSH1 0x24 DUP3 ADD MSTORE PUSH32 0x4F6E6C7920565246436F6F7264696E61746F722063616E2066756C66696C6C00 PUSH1 0x44 DUP3 ADD MSTORE SWAP1 MLOAD SWAP1 DUP2 SWAP1 SUB PUSH1 0x64 ADD SWAP1 REVERT JUMPDEST PUSH2 0x63A DUP3 DUP3 PUSH2 0xA8B JUMP JUMPDEST POP POP JUMP JUMPDEST PUSH1 0x0 DUP1 PUSH1 0x3 PUSH1 0x0 SWAP1 SLOAD SWAP1 PUSH2 0x100 EXP SWAP1 DIV PUSH1 0x1 PUSH1 0x1 PUSH1 0xA0 SHL SUB AND PUSH1 0x1 PUSH1 0x1 PUSH1 0xA0 SHL SUB AND PUSH4 0xFEAF968C PUSH1 0x40 MLOAD DUP2 PUSH4 0xFFFFFFFF AND PUSH1 0xE0 SHL DUP2 MSTORE PUSH1 0x4 ADD PUSH1 0xA0 PUSH1 0x40 MLOAD DUP1 DUP4 SUB DUP2 DUP7 DUP1 EXTCODESIZE ISZERO DUP1 ISZERO PUSH2 0x68F JUMPI PUSH1 0x0 DUP1 REVERT JUMPDEST POP GAS STATICCALL ISZERO DUP1 ISZERO PUSH2 0x6A3 JUMPI RETURNDATASIZE PUSH1 0x0 DUP1 RETURNDATACOPY RETURNDATASIZE PUSH1 0x0 REVERT JUMPDEST POP POP POP POP PUSH1 0x40 MLOAD RETURNDATASIZE PUSH1 0xA0 DUP2 LT ISZERO PUSH2 0x6B9 JUMPI PUSH1 0x0 DUP1 REVERT JUMPDEST POP PUSH1 0x20 ADD MLOAD PUSH5 0x2540BE400 MUL SWAP2 POP POP SWAP1 JUMP JUMPDEST PUSH1 0x4 SLOAD DUP2 JUMP JUMPDEST PUSH1 0x0 PUSH1 0x3 SLOAD PUSH1 0x1 PUSH1 0xA0 SHL SWAP1 DIV PUSH1 0xFF AND PUSH1 0x2 DUP2 GT ISZERO PUSH2 0x6EB JUMPI INVALID JUMPDEST EQ PUSH2 0x6F5 JUMPI PUSH1 0x0 DUP1 REVERT JUMPDEST PUSH1 0x2 SLOAD PUSH2 0x701 CALLVALUE PUSH2 0x4A7 JUMP JUMPDEST LT ISZERO PUSH2 0x754 JUMPI PUSH1 0x40 DUP1 MLOAD PUSH3 0x461BCD PUSH1 0xE5 SHL DUP2 MSTORE PUSH1 0x20 PUSH1 0x4 DUP3 ADD MSTORE PUSH1 0x1B PUSH1 0x24 DUP3 ADD MSTORE PUSH32 0x596F75206E65656420746F207370656E64206D6F726520455448210000000000 PUSH1 0x44 DUP3 ADD MSTORE SWAP1 MLOAD SWAP1 DUP2 SWAP1 SUB PUSH1 0x64 ADD SWAP1 REVERT JUMPDEST PUSH1 0x6 DUP1 SLOAD PUSH1 0x1 DUP2 ADD DUP3 SSTORE PUSH1 0x0 SWAP2 SWAP1 SWAP2 MSTORE PUSH32 0xF652222313E28459528D920B65115C16C04F3EFC82AAEDC97BE59F3F377C0D3F ADD DUP1 SLOAD PUSH1 0x1 PUSH1 0x1 PUSH1 0xA0 SHL SUB NOT AND CALLER OR SWAP1 SSTORE JUMP JUMPDEST PUSH2 0x7A0 PUSH2 0x8D4 JUMP JUMPDEST PUSH1 0x1 PUSH1 0x1 PUSH1 0xA0 SHL SUB AND PUSH2 0x7B1 PUSH2 0x5A4 JUMP JUMPDEST PUSH1 0x1 PUSH1 0x1 PUSH1 0xA0 SHL SUB AND EQ PUSH2 0x80C JUMPI PUSH1 0x40 DUP1 MLOAD PUSH3 0x461BCD PUSH1 0xE5 SHL DUP2 MSTORE PUSH1 0x20 PUSH1 0x4 DUP3 ADD DUP2 SWAP1 MSTORE PUSH1 0x24 DUP3 ADD MSTORE PUSH32 0x4F776E61626C653A2063616C6C6572206973206E6F7420746865206F776E6572 PUSH1 0x44 DUP3 ADD MSTORE SWAP1 MLOAD SWAP1 DUP2 SWAP1 SUB PUSH1 0x64 ADD SWAP1 REVERT JUMPDEST PUSH1 0x1 PUSH1 0x1 PUSH1 0xA0 SHL SUB DUP2 AND PUSH2 0x851 JUMPI PUSH1 0x40 MLOAD PUSH3 0x461BCD PUSH1 0xE5 SHL DUP2 MSTORE PUSH1 0x4 ADD DUP1 DUP1 PUSH1 0x20 ADD DUP3 DUP2 SUB DUP3 MSTORE PUSH1 0x26 DUP2 MSTORE PUSH1 0x20 ADD DUP1 PUSH2 0xD49 PUSH1 0x26 SWAP2 CODECOPY PUSH1 0x40 ADD SWAP2 POP POP PUSH1 0x40 MLOAD DUP1 SWAP2 SUB SWAP1 REVERT JUMPDEST PUSH1 0x1 SLOAD PUSH1 0x40 MLOAD PUSH1 0x1 PUSH1 0x1 PUSH1 0xA0 SHL SUB DUP1 DUP5 AND SWAP3 AND SWAP1 PUSH32 0x8BE0079C531659141344CD1FD0A4F28419497F9722A3DAAFE3B4186F6B6457E0 SWAP1 PUSH1 0x0 SWAP1 LOG3 PUSH1 0x1 DUP1 SLOAD PUSH1 0x1 PUSH1 0x1 PUSH1 0xA0 SHL SUB NOT AND PUSH1 0x1 PUSH1 0x1 PUSH1 0xA0 SHL SUB SWAP3 SWAP1 SWAP3 AND SWAP2 SWAP1 SWAP2 OR SWAP1 SSTORE JUMP JUMPDEST PUSH1 0x6 DUP2 DUP2 SLOAD DUP2 LT PUSH2 0x8BA JUMPI INVALID JUMPDEST PUSH1 0x0 SWAP2 DUP3 MSTORE PUSH1 0x20 SWAP1 SWAP2 KECCAK256 ADD SLOAD PUSH1 0x1 PUSH1 0x1 PUSH1 0xA0 SHL SUB AND SWAP1 POP DUP2 JUMP JUMPDEST CALLER SWAP1 JUMP JUMPDEST PUSH1 0x0 PUSH32 0x0 PUSH1 0x1 PUSH1 0x1 PUSH1 0xA0 SHL SUB AND PUSH4 0x4000AEA0 PUSH32 0x0 DUP5 DUP7 PUSH1 0x0 PUSH1 0x40 MLOAD PUSH1 0x20 ADD DUP1 DUP4 DUP2 MSTORE PUSH1 0x20 ADD DUP3 DUP2 MSTORE PUSH1 0x20 ADD SWAP3 POP POP POP PUSH1 0x40 MLOAD PUSH1 0x20 DUP2 DUP4 SUB SUB DUP2 MSTORE SWAP1 PUSH1 0x40 MSTORE PUSH1 0x40 MLOAD DUP5 PUSH4 0xFFFFFFFF AND PUSH1 0xE0 SHL DUP2 MSTORE PUSH1 0x4 ADD DUP1 DUP5 PUSH1 0x1 PUSH1 0x1 PUSH1 0xA0 SHL SUB AND DUP2 MSTORE PUSH1 0x20 ADD DUP4 DUP2 MSTORE PUSH1 0x20 ADD DUP1 PUSH1 0x20 ADD DUP3 DUP2 SUB DUP3 MSTORE DUP4 DUP2 DUP2 MLOAD DUP2 MSTORE PUSH1 0x20 ADD SWAP2 POP DUP1 MLOAD SWAP1 PUSH1 0x20 ADD SWAP1 DUP1 DUP4 DUP4 PUSH1 0x0 JUMPDEST DUP4 DUP2 LT ISZERO PUSH2 0x9B5 JUMPI DUP2 DUP2 ADD MLOAD DUP4 DUP3 ADD MSTORE PUSH1 0x20 ADD PUSH2 0x99D JUMP JUMPDEST POP POP POP POP SWAP1 POP SWAP1 DUP2 ADD SWAP1 PUSH1 0x1F AND DUP1 ISZERO PUSH2 0x9E2 JUMPI DUP1 DUP3 SUB DUP1 MLOAD PUSH1 0x1 DUP4 PUSH1 0x20 SUB PUSH2 0x100 EXP SUB NOT AND DUP2 MSTORE PUSH1 0x20 ADD SWAP2 POP JUMPDEST POP SWAP5 POP POP POP POP POP PUSH1 0x20 PUSH1 0x40 MLOAD DUP1 DUP4 SUB DUP2 PUSH1 0x0 DUP8 DUP1 EXTCODESIZE ISZERO DUP1 ISZERO PUSH2 0xA03 JUMPI PUSH1 0x0 DUP1 REVERT JUMPDEST POP GAS CALL ISZERO DUP1 ISZERO PUSH2 0xA17 JUMPI RETURNDATASIZE PUSH1 0x0 DUP1 RETURNDATACOPY RETURNDATASIZE PUSH1 0x0 REVERT JUMPDEST POP POP POP POP PUSH1 0x40 MLOAD RETURNDATASIZE PUSH1 0x20 DUP2 LT ISZERO PUSH2 0xA2D JUMPI PUSH1 0x0 DUP1 REVERT JUMPDEST POP POP PUSH1 0x0 DUP4 DUP2 MSTORE PUSH1 0x20 DUP2 SWAP1 MSTORE PUSH1 0x40 DUP2 KECCAK256 SLOAD PUSH2 0xA4D SWAP1 DUP6 SWAP1 DUP4 SWAP1 ADDRESS SWAP1 PUSH2 0xBF0 JUMP JUMPDEST PUSH1 0x0 DUP6 DUP2 MSTORE PUSH1 0x20 DUP2 SWAP1 MSTORE PUSH1 0x40 SWAP1 KECCAK256 SLOAD SWAP1 SWAP2 POP PUSH2 0xA6A SWAP1 PUSH1 0x1 PUSH2 0xC37 JUMP JUMPDEST PUSH1 0x0 DUP6 DUP2 MSTORE PUSH1 0x20 DUP2 SWAP1 MSTORE PUSH1 0x40 SWAP1 KECCAK256 SSTORE PUSH2 0xA83 DUP5 DUP3 PUSH2 0xC98 JUMP JUMPDEST SWAP5 SWAP4 POP POP POP POP JUMP JUMPDEST PUSH1 0x2 PUSH1 0x3 SLOAD PUSH1 0x1 PUSH1 0xA0 SHL SWAP1 DIV PUSH1 0xFF AND PUSH1 0x2 DUP2 GT ISZERO PUSH2 0xAA5 JUMPI INVALID JUMPDEST EQ PUSH2 0xAF0 JUMPI PUSH1 0x40 DUP1 MLOAD PUSH3 0x461BCD PUSH1 0xE5 SHL DUP2 MSTORE PUSH1 0x20 PUSH1 0x4 DUP3 ADD MSTORE PUSH1 0x16 PUSH1 0x24 DUP3 ADD MSTORE PUSH22 0x596F75206172656E2774207468657265207965742021 PUSH1 0x50 SHL PUSH1 0x44 DUP3 ADD MSTORE SWAP1 MLOAD SWAP1 DUP2 SWAP1 SUB PUSH1 0x64 ADD SWAP1 REVERT JUMPDEST PUSH1 0x0 DUP2 GT PUSH2 0xB45 JUMPI PUSH1 0x40 DUP1 MLOAD PUSH3 0x461BCD PUSH1 0xE5 SHL DUP2 MSTORE PUSH1 0x20 PUSH1 0x4 DUP3 ADD MSTORE PUSH1 0x17 PUSH1 0x24 DUP3 ADD MSTORE PUSH32 0x4E6F2072616E646F6D206E756D62657220666F756E642E000000000000000000 PUSH1 0x44 DUP3 ADD MSTORE SWAP1 MLOAD SWAP1 DUP2 SWAP1 SUB PUSH1 0x64 ADD SWAP1 REVERT JUMPDEST PUSH1 0x6 SLOAD PUSH1 0x0 SWAP1 DUP3 DUP2 PUSH2 0xB53 JUMPI INVALID JUMPDEST MOD SWAP1 POP PUSH1 0x6 DUP2 DUP2 SLOAD DUP2 LT PUSH2 0xB63 JUMPI INVALID JUMPDEST PUSH1 0x0 SWAP2 DUP3 MSTORE PUSH1 0x20 DUP3 KECCAK256 ADD SLOAD PUSH1 0x7 DUP1 SLOAD PUSH1 0x1 PUSH1 0x1 PUSH1 0xA0 SHL SUB NOT AND PUSH1 0x1 PUSH1 0x1 PUSH1 0xA0 SHL SUB SWAP3 DUP4 AND OR SWAP1 DUP2 SWAP1 SSTORE PUSH1 0x40 MLOAD SWAP2 AND SWAP2 SELFBALANCE DUP1 ISZERO PUSH2 0x8FC MUL SWAP3 SWAP1 SWAP2 DUP2 DUP2 DUP2 DUP6 DUP9 DUP9 CALL SWAP4 POP POP POP POP ISZERO DUP1 ISZERO PUSH2 0xBB9 JUMPI RETURNDATASIZE PUSH1 0x0 DUP1 RETURNDATACOPY RETURNDATASIZE PUSH1 0x0 REVERT JUMPDEST POP PUSH1 0x40 DUP1 MLOAD PUSH1 0x0 DUP2 MSTORE PUSH1 0x20 DUP2 ADD SWAP2 DUP3 SWAP1 MSTORE MLOAD PUSH2 0xBD7 SWAP2 PUSH1 0x6 SWAP2 PUSH2 0xCC4 JUMP JUMPDEST POP POP PUSH1 0x3 DUP1 SLOAD PUSH1 0xFF PUSH1 0xA0 SHL NOT AND PUSH1 0x1 PUSH1 0xA0 SHL OR SWAP1 SSTORE POP POP JUMP JUMPDEST PUSH1 0x40 DUP1 MLOAD PUSH1 0x20 DUP1 DUP3 ADD SWAP7 SWAP1 SWAP7 MSTORE DUP1 DUP3 ADD SWAP5 SWAP1 SWAP5 MSTORE PUSH1 0x1 PUSH1 0x1 PUSH1 0xA0 SHL SUB SWAP3 SWAP1 SWAP3 AND PUSH1 0x60 DUP5 ADD MSTORE PUSH1 0x80 DUP1 DUP5 ADD SWAP2 SWAP1 SWAP2 MSTORE DUP2 MLOAD DUP1 DUP5 SUB SWAP1 SWAP2 ADD DUP2 MSTORE PUSH1 0xA0 SWAP1 SWAP3 ADD SWAP1 MSTORE DUP1 MLOAD SWAP2 ADD KECCAK256 SWAP1 JUMP JUMPDEST PUSH1 0x0 DUP3 DUP3 ADD DUP4 DUP2 LT ISZERO PUSH2 0xC91 JUMPI PUSH1 0x40 DUP1 MLOAD PUSH3 0x461BCD PUSH1 0xE5 SHL DUP2 MSTORE PUSH1 0x20 PUSH1 0x4 DUP3 ADD MSTORE PUSH1 0x1B PUSH1 0x24 DUP3 ADD MSTORE PUSH32 0x536166654D6174683A206164646974696F6E206F766572666C6F770000000000 PUSH1 0x44 DUP3 ADD MSTORE SWAP1 MLOAD SWAP1 DUP2 SWAP1 SUB PUSH1 0x64 ADD SWAP1 REVERT JUMPDEST SWAP4 SWAP3 POP POP POP JUMP JUMPDEST PUSH1 0x40 DUP1 MLOAD PUSH1 0x20 DUP1 DUP3 ADD SWAP5 SWAP1 SWAP5 MSTORE DUP1 DUP3 ADD SWAP3 SWAP1 SWAP3 MSTORE DUP1 MLOAD DUP1 DUP4 SUB DUP3 ADD DUP2 MSTORE PUSH1 0x60 SWAP1 SWAP3 ADD SWAP1 MSTORE DUP1 MLOAD SWAP2 ADD KECCAK256 SWAP1 JUMP JUMPDEST DUP3 DUP1 SLOAD DUP3 DUP3 SSTORE SWAP1 PUSH1 0x0 MSTORE PUSH1 0x20 PUSH1 0x0 KECCAK256 SWAP1 DUP2 ADD SWAP3 DUP3 ISZERO PUSH2 0xD19 JUMPI SWAP2 PUSH1 0x20 MUL DUP3 ADD JUMPDEST DUP3 DUP2 GT ISZERO PUSH2 0xD19 JUMPI DUP3 MLOAD DUP3 SLOAD PUSH1 0x1 PUSH1 0x1 PUSH1 0xA0 SHL SUB NOT AND PUSH1 0x1 PUSH1 0x1 PUSH1 0xA0 SHL SUB SWAP1 SWAP2 AND OR DUP3 SSTORE PUSH1 0x20 SWAP1 SWAP3 ADD SWAP2 PUSH1 0x1 SWAP1 SWAP2 ADD SWAP1 PUSH2 0xCE4 JUMP JUMPDEST POP PUSH2 0xD25 SWAP3 SWAP2 POP PUSH2 0xD29 JUMP JUMPDEST POP SWAP1 JUMP JUMPDEST JUMPDEST DUP1 DUP3 GT ISZERO PUSH2 0xD25 JUMPI DUP1 SLOAD PUSH1 0x1 PUSH1 0x1 PUSH1 0xA0 SHL SUB NOT AND DUP2 SSTORE PUSH1 0x1 ADD PUSH2 0xD2A JUMP INVALID 0x4F PUSH24 0x6E61626C653A206E6577206F776E65722069732074686520 PUSH27 0x65726F2061646472657373A2646970667358221220CFEE0DB438DA 0x1E CALLVALUE 0xE SWAP13 SGT 0xF7 0xD8 0xD8 DUP10 CREATE PUSH12 0x224C4C2A9F69E20F685C8047 0xDB LOG2 0xBA PUSH5 0x736F6C6343 STOP MOD 0xC STOP CALLER ",
  "sha1": "f9b3c2342345db4d8cd595732b0083001e641cb0",
  "source": "/**\n    Smart Contract to implement a lottery's behaviour. The lottery can\n    only be opened and closed by an administrator, anyone can enter it\n    when it is open at the condition that they fund it with enough ETH\n    (50$ worth). When it is closed, the lottery picks a winner at random\n    and transfer its balance to the winner's account.\n    In-function comments were written for learning purposes.\n\n    @ author: Anton Sirgue\n    @version: 22/01/2022\n */\n\n// SPDX-License-Identifier: MIT\n\npragma solidity ^0.6.6;\n\nimport \"@chainlink/contracts/src/v0.6/interfaces/AggregatorV3Interface.sol\";\nimport \"@openzeppelin/contracts/access/Ownable.sol\";\nimport \"@chainlink/contracts/src/v0.6/VRFConsumerBase.sol\";\n\ncontract Lottery is VRFConsumerBase, Ownable {\n    uint256 public minimumUsd;\n    AggregatorV3Interface public priceFeed;\n    enum LOTTERY_STATE {\n        OPEN,\n        CLOSED,\n        CALCULATING_WINNER\n    }\n\n    // these diff states are represnted by nbs 0-1\n\n    LOTTERY_STATE public lottery_state;\n    uint256 public fee;\n    bytes32 public keyhash;\n    address payable[] public players;\n    address payable public recentWinner;\n    event requestedRandomness(bytes32 requestId);\n\n    // we 'fit' the constructor for the VRFConsumerBase contract in the constructor of this contract, each parameeter of the constructor of VRFConsumerBase is first passed to our 'normal' constructor\n    constructor(\n        address _priceFeed,\n        address _vrfCoordinator,\n        address _link,\n        uint256 _fee,\n        bytes32 _keyhash\n    ) public VRFConsumerBase(_vrfCoordinator, _link) {\n        priceFeed = AggregatorV3Interface(_priceFeed);\n        minimumUsd = 50 * (10**18);\n        lottery_state = LOTTERY_STATE.CLOSED;\n        fee = _fee;\n        keyhash = _keyhash;\n    }\n\n    function enter() public payable {\n        require(lottery_state == LOTTERY_STATE.OPEN);\n        require(\n            getConversionRate(msg.value) >= minimumUsd,\n            \"You need to spend more ETH!\"\n        );\n        players.push(msg.sender);\n    }\n\n    function startLottery() public {\n        require(\n            lottery_state == LOTTERY_STATE.CLOSED,\n            \"Can't start a new lottery yet\"\n        );\n        lottery_state = LOTTERY_STATE.OPEN;\n    }\n\n    function endLottery() public onlyOwner {\n        lottery_state = LOTTERY_STATE.CALCULATING_WINNER;\n\n        // Request random number\n        bytes32 requestId = requestRandomness(keyhash, fee); // request and receive mentality: here we call and then the chainlink will 'send' a random number to another function called 'fulfillRandomness'\n        emit requestedRandomness(requestId);\n    }\n\n    // We make it internal so the Chainlink node is the only one to be able to call it, it calls the VRFConsumerBase than then calls our function. This is essential to protecting from manipulations.\n    function fulfillRandomness(bytes32 _requestId, uint256 _randomness)\n        internal\n        override\n    {\n        require(\n            lottery_state == LOTTERY_STATE.CALCULATING_WINNER,\n            \"You aren't there yet !\"\n        );\n        require(_randomness > 0, \"No random number found.\");\n\n        uint256 indexOfWinner = _randomness % players.length;\n        recentWinner = players[indexOfWinner];\n\n        // Now we want to pay the winner all the money that accumulated in the lottery\n        recentWinner.transfer(address(this).balance);\n\n        // Reset the lottery\n        players = new address payable[](0);\n        lottery_state = LOTTERY_STATE.CLOSED;\n    }\n\n    function getPrice() public view returns (uint256) {\n        (, int256 answer, , , ) = priceFeed.latestRoundData();\n        return uint256(answer * 10000000000);\n    }\n\n    // 1000000000\n    function getConversionRate(uint256 ethAmount)\n        public\n        view\n        returns (uint256)\n    {\n        uint256 ethPrice = getPrice();\n        uint256 ethAmountInUsd = (ethPrice * ethAmount) / 1000000000000000000;\n        return ethAmountInUsd;\n    }\n\n    function getEntranceFee() public view returns (uint256) {\n        // minimumUSD\n        uint256 price = getPrice();\n        uint256 precision = 1 * 10**18;\n        return (minimumUsd * precision) / price;\n    }\n}\n",
  "sourcePath": "contracts/Lottery.sol",
  "type": "contract"
}