{"bytecode":"608060405234801561001057600080fd5b5060405161045c38038061045c8339818101604052602081101561003357600080fd5b5051600280546001600160a01b039092166001600160a01b031992831617905560018054909116331790556103ef8061006d6000396000f3fe60806040526004361061007b5760003560e01c80636e5b6b281161004e5780636e5b6b28146100f9578063741bef1a1461012357806398d5fdca14610154578063b60d4288146101695761007b565b806309bc33a7146100805780630d8e6e2c146100a75780633ccfd60b146100bc5780633e47d6f3146100c6575b600080fd5b34801561008c57600080fd5b50610095610171565b60408051918252519081900360200190f35b3480156100b357600080fd5b506100956101a5565b6100c461021b565b005b3480156100d257600080fd5b50610095600480360360208110156100e957600080fd5b50356001600160a01b0316610261565b34801561010557600080fd5b506100956004803603602081101561011c57600080fd5b5035610273565b34801561012f57600080fd5b50610138610290565b604080516001600160a01b039092168252519081900360200190f35b34801561016057600080fd5b5061009561029f565b6100c4610325565b60006802b5e3af16b18800008161018661029f565b9050670de0b6b3a7640000818382028161019c57fe5b04935050505090565b6002546040805163054fd4d560e41b815290516000926001600160a01b0316916354fd4d50916004808301926020929190829003018186803b1580156101ea57600080fd5b505afa1580156101fe573d6000803e3d6000fd5b505050506040513d602081101561021457600080fd5b5090919050565b6001546001600160a01b0316331461023257600080fd5b60405133904780156108fc02916000818181858888f1935050505015801561025e573d6000803e3d6000fd5b50565b60006020819052908152604090205481565b60008061027e61029f565b64174876e80093029290920492915050565b6002546001600160a01b031681565b600080600260009054906101000a90046001600160a01b03166001600160a01b031663feaf968c6040518163ffffffff1660e01b815260040160a06040518083038186803b1580156102f057600080fd5b505afa158015610304573d6000803e3d6000fd5b505050506040513d60a081101561031a57600080fd5b506020015191505090565b64012a05f2008061033534610273565b10156103725760405162461bcd60e51b815260040180806020018281038252602f81526020018061038b602f913960400191505060405180910390fd5b5033600090815260208190526040902080543401905556fe596f75206e65656420746f207370656e64206174206c6561737420353020646f6c6c20776f727468206f6620455448a264697066735822122031cfd5857445668c55bffa33865117fe92f51fa68373782880a48d48acf7c4f064736f6c634300060c0033","bytecodeSha1":"d1ddeef6da126785dab253c0136254c23e7071e0","type":"contract","abi":[{"inputs":[{"internalType":"address","name":"_priceFeed","type":"address"}],"stateMutability":"nonpayable","type":"constructor","name":"constructor"},{"inputs":[{"internalType":"address","name":"","type":"address"}],"name":"addressToAmountFunded","outputs":[{"internalType":"uint256","name":"","type":"uint256"}],"stateMutability":"view","type":"function"},{"inputs":[],"name":"fund","outputs":[],"stateMutability":"payable","type":"function"},{"inputs":[{"internalType":"uint256","name":"ethAmount","type":"uint256"}],"name":"getConversionRate","outputs":[{"internalType":"uint256","name":"","type":"uint256"}],"stateMutability":"view","type":"function"},{"inputs":[],"name":"getEntranceFee","outputs":[{"internalType":"uint256","name":"","type":"uint256"}],"stateMutability":"view","type":"function"},{"inputs":[],"name":"getPrice","outputs":[{"internalType":"uint256","name":"","type":"uint256"}],"stateMutability":"view","type":"function"},{"inputs":[],"name":"getVersion","outputs":[{"internalType":"uint256","name":"","type":"uint256"}],"stateMutability":"view","type":"function"},{"inputs":[],"name":"priceFeed","outputs":[{"internalType":"contract AggregatorV3Interface","name":"","type":"address"}],"stateMutability":"view","type":"function"},{"inputs":[],"name":"withdraw","outputs":[],"stateMutability":"payable","type":"function"}],"compiler":{"version":"0.6.12+commit.27d51765","evm_version":"istanbul","optimizer":{"enabled":true,"runs":200}},"contractName":"FundMe","language":"Solidity","natspec":{"methods":{},"kind":"dev","version":1},"opcodes":"PUSH1 0x80 PUSH1 0x40 MSTORE PUSH1 0x4 CALLDATASIZE LT PUSH2 0x7B JUMPI PUSH1 0x0 CALLDATALOAD PUSH1 0xE0 SHR DUP1 PUSH4 0x6E5B6B28 GT PUSH2 0x4E JUMPI DUP1 PUSH4 0x6E5B6B28 EQ PUSH2 0xF9 JUMPI DUP1 PUSH4 0x741BEF1A EQ PUSH2 0x123 JUMPI DUP1 PUSH4 0x98D5FDCA EQ PUSH2 0x154 JUMPI DUP1 PUSH4 0xB60D4288 EQ PUSH2 0x169 JUMPI PUSH2 0x7B JUMP JUMPDEST DUP1 PUSH4 0x9BC33A7 EQ PUSH2 0x80 JUMPI DUP1 PUSH4 0xD8E6E2C EQ PUSH2 0xA7 JUMPI DUP1 PUSH4 0x3CCFD60B EQ PUSH2 0xBC JUMPI DUP1 PUSH4 0x3E47D6F3 EQ PUSH2 0xC6 JUMPI JUMPDEST PUSH1 0x0 DUP1 REVERT JUMPDEST CALLVALUE DUP1 ISZERO PUSH2 0x8C JUMPI PUSH1 0x0 DUP1 REVERT JUMPDEST POP PUSH2 0x95 PUSH2 0x171 JUMP JUMPDEST PUSH1 0x40 DUP1 MLOAD SWAP2 DUP3 MSTORE MLOAD SWAP1 DUP2 SWAP1 SUB PUSH1 0x20 ADD SWAP1 RETURN JUMPDEST CALLVALUE DUP1 ISZERO PUSH2 0xB3 JUMPI PUSH1 0x0 DUP1 REVERT JUMPDEST POP PUSH2 0x95 PUSH2 0x1A5 JUMP JUMPDEST PUSH2 0xC4 PUSH2 0x21B JUMP JUMPDEST STOP JUMPDEST CALLVALUE DUP1 ISZERO PUSH2 0xD2 JUMPI PUSH1 0x0 DUP1 REVERT JUMPDEST POP PUSH2 0x95 PUSH1 0x4 DUP1 CALLDATASIZE SUB PUSH1 0x20 DUP2 LT ISZERO PUSH2 0xE9 JUMPI PUSH1 0x0 DUP1 REVERT JUMPDEST POP CALLDATALOAD PUSH1 0x1 PUSH1 0x1 PUSH1 0xA0 SHL SUB AND PUSH2 0x261 JUMP JUMPDEST CALLVALUE DUP1 ISZERO PUSH2 0x105 JUMPI PUSH1 0x0 DUP1 REVERT JUMPDEST POP PUSH2 0x95 PUSH1 0x4 DUP1 CALLDATASIZE SUB PUSH1 0x20 DUP2 LT ISZERO PUSH2 0x11C JUMPI PUSH1 0x0 DUP1 REVERT JUMPDEST POP CALLDATALOAD PUSH2 0x273 JUMP JUMPDEST CALLVALUE DUP1 ISZERO PUSH2 0x12F JUMPI PUSH1 0x0 DUP1 REVERT JUMPDEST POP PUSH2 0x138 PUSH2 0x290 JUMP JUMPDEST PUSH1 0x40 DUP1 MLOAD PUSH1 0x1 PUSH1 0x1 PUSH1 0xA0 SHL SUB SWAP1 SWAP3 AND DUP3 MSTORE MLOAD SWAP1 DUP2 SWAP1 SUB PUSH1 0x20 ADD SWAP1 RETURN JUMPDEST CALLVALUE DUP1 ISZERO PUSH2 0x160 JUMPI PUSH1 0x0 DUP1 REVERT JUMPDEST POP PUSH2 0x95 PUSH2 0x29F JUMP JUMPDEST PUSH2 0xC4 PUSH2 0x325 JUMP JUMPDEST PUSH1 0x0 PUSH9 0x2B5E3AF16B1880000 DUP2 PUSH2 0x186 PUSH2 0x29F JUMP JUMPDEST SWAP1 POP PUSH8 0xDE0B6B3A7640000 DUP2 DUP4 DUP3 MUL DUP2 PUSH2 0x19C JUMPI INVALID JUMPDEST DIV SWAP4 POP POP POP POP SWAP1 JUMP JUMPDEST PUSH1 0x2 SLOAD PUSH1 0x40 DUP1 MLOAD PUSH4 0x54FD4D5 PUSH1 0xE4 SHL DUP2 MSTORE SWAP1 MLOAD PUSH1 0x0 SWAP3 PUSH1 0x1 PUSH1 0x1 PUSH1 0xA0 SHL SUB AND SWAP2 PUSH4 0x54FD4D50 SWAP2 PUSH1 0x4 DUP1 DUP4 ADD SWAP3 PUSH1 0x20 SWAP3 SWAP2 SWAP1 DUP3 SWAP1 SUB ADD DUP2 DUP7 DUP1 EXTCODESIZE ISZERO DUP1 ISZERO PUSH2 0x1EA JUMPI PUSH1 0x0 DUP1 REVERT JUMPDEST POP GAS STATICCALL ISZERO DUP1 ISZERO PUSH2 0x1FE JUMPI RETURNDATASIZE PUSH1 0x0 DUP1 RETURNDATACOPY RETURNDATASIZE PUSH1 0x0 REVERT JUMPDEST POP POP POP POP PUSH1 0x40 MLOAD RETURNDATASIZE PUSH1 0x20 DUP2 LT ISZERO PUSH2 0x214 JUMPI PUSH1 0x0 DUP1 REVERT JUMPDEST POP SWAP1 SWAP2 SWAP1 POP JUMP JUMPDEST PUSH1 0x1 SLOAD PUSH1 0x1 PUSH1 0x1 PUSH1 0xA0 SHL SUB AND CALLER EQ PUSH2 0x232 JUMPI PUSH1 0x0 DUP1 REVERT JUMPDEST PUSH1 0x40 MLOAD CALLER SWAP1 SELFBALANCE DUP1 ISZERO PUSH2 0x8FC MUL SWAP2 PUSH1 0x0 DUP2 DUP2 DUP2 DUP6 DUP9 DUP9 CALL SWAP4 POP POP POP POP ISZERO DUP1 ISZERO PUSH2 0x25E JUMPI RETURNDATASIZE PUSH1 0x0 DUP1 RETURNDATACOPY RETURNDATASIZE PUSH1 0x0 REVERT JUMPDEST POP JUMP JUMPDEST PUSH1 0x0 PUSH1 0x20 DUP2 SWAP1 MSTORE SWAP1 DUP2 MSTORE PUSH1 0x40 SWAP1 KECCAK256 SLOAD DUP2 JUMP JUMPDEST PUSH1 0x0 DUP1 PUSH2 0x27E PUSH2 0x29F JUMP JUMPDEST PUSH5 0x174876E800 SWAP4 MUL SWAP3 SWAP1 SWAP3 DIV SWAP3 SWAP2 POP POP JUMP JUMPDEST PUSH1 0x2 SLOAD PUSH1 0x1 PUSH1 0x1 PUSH1 0xA0 SHL SUB AND DUP2 JUMP JUMPDEST PUSH1 0x0 DUP1 PUSH1 0x2 PUSH1 0x0 SWAP1 SLOAD SWAP1 PUSH2 0x100 EXP SWAP1 DIV PUSH1 0x1 PUSH1 0x1 PUSH1 0xA0 SHL SUB AND PUSH1 0x1 PUSH1 0x1 PUSH1 0xA0 SHL SUB AND PUSH4 0xFEAF968C PUSH1 0x40 MLOAD DUP2 PUSH4 0xFFFFFFFF AND PUSH1 0xE0 SHL DUP2 MSTORE PUSH1 0x4 ADD PUSH1 0xA0 PUSH1 0x40 MLOAD DUP1 DUP4 SUB DUP2 DUP7 DUP1 EXTCODESIZE ISZERO DUP1 ISZERO PUSH2 0x2F0 JUMPI PUSH1 0x0 DUP1 REVERT JUMPDEST POP GAS STATICCALL ISZERO DUP1 ISZERO PUSH2 0x304 JUMPI RETURNDATASIZE PUSH1 0x0 DUP1 RETURNDATACOPY RETURNDATASIZE PUSH1 0x0 REVERT JUMPDEST POP POP POP POP PUSH1 0x40 MLOAD RETURNDATASIZE PUSH1 0xA0 DUP2 LT ISZERO PUSH2 0x31A JUMPI PUSH1 0x0 DUP1 REVERT JUMPDEST POP PUSH1 0x20 ADD MLOAD SWAP2 POP POP SWAP1 JUMP JUMPDEST PUSH5 0x12A05F200 DUP1 PUSH2 0x335 CALLVALUE PUSH2 0x273 JUMP JUMPDEST LT ISZERO PUSH2 0x372 JUMPI PUSH1 0x40 MLOAD PUSH3 0x461BCD PUSH1 0xE5 SHL DUP2 MSTORE PUSH1 0x4 ADD DUP1 DUP1 PUSH1 0x20 ADD DUP3 DUP2 SUB DUP3 MSTORE PUSH1 0x2F DUP2 MSTORE PUSH1 0x20 ADD DUP1 PUSH2 0x38B PUSH1 0x2F SWAP2 CODECOPY PUSH1 0x40 ADD SWAP2 POP POP PUSH1 0x40 MLOAD DUP1 SWAP2 SUB SWAP1 REVERT JUMPDEST POP CALLER PUSH1 0x0 SWAP1 DUP2 MSTORE PUSH1 0x20 DUP2 SWAP1 MSTORE PUSH1 0x40 SWAP1 KECCAK256 DUP1 SLOAD CALLVALUE ADD SWAP1 SSTORE JUMP INVALID MSIZE PUSH16 0x75206E65656420746F207370656E6420 PUSH2 0x7420 PUSH13 0x6561737420353020646F6C6C20 PUSH24 0x6F727468206F6620455448A264697066735822122031CFD5 DUP6 PUSH21 0x45668C55BFFA33865117FE92F51FA68373782880A4 DUP14 0x48 0xAC 0xF7 0xC4 CREATE PUSH5 0x736F6C6343 STOP MOD 0xC STOP CALLER ","sha1":"2be2082f546b0dbdc65f902a1c78fa4596ef8587","source":"pragma solidity ^0.6.6;\n\nimport \"@chainlink/contracts/src/v0.6/interfaces/AggregatorV3Interface.sol\";\n\ncontract FundMe {\n    mapping(address => uint256) public addressToAmountFunded; // to keep track of who sends us money\n    address owner;\n    AggregatorV3Interface public priceFeed;\n\n    constructor(address _priceFeed) public {\n        priceFeed = AggregatorV3Interface(_priceFeed); // this is all to allow to test on a ganache or local chain by avoidinbg to hardcode the address\n        owner = msg.sender;\n    }\n\n    function fund() public payable {\n        uint256 minimumUSD = 50 * 10**8; //the 10**8 is bcs the rest is in gwei\n        require(\n            getConversionRate(msg.value) >= minimumUSD,\n            \"You need to spend at least 50 doll worth of ETH\"\n        );\n        addressToAmountFunded[msg.sender] += msg.value;\n    }\n\n    function getVersion() public view returns (uint256) {\n        priceFeed.version();\n    }\n\n    function getPrice() public view returns (uint256) {\n        (, int256 answer, , , ) = priceFeed.latestRoundData(); //the commas are for return part of the tuples that we don't care about\n        return uint256(answer);\n    }\n\n    function getConversionRate(uint256 ethAmount)\n        public\n        view\n        returns (uint256)\n    {\n        uint256 ethPrice = getPrice();\n        uint256 ethAmountinUsd = (ethPrice * ethAmount) / 100000000000; //we divide because we are speaking in gwei or dollars to Eth so the two numbers we are dealing with are not right\n        return ethAmountinUsd;\n    }\n\n    function withdraw() public payable {\n        require(msg.sender == owner);\n        msg.sender.transfer(address(this).balance);\n    }\n\n    function getEntranceFee() public view returns (uint256) {\n        // minimumUSD\n        uint256 minimumUSD = 50 * 10**18;\n        uint256 price = getPrice();\n        uint256 precision = 1 * 10**18;\n        return (minimumUSD * precision) / price;\n    }\n}\n","sourcePath":"contracts/FundMe.sol","deployment":{"address":"0x729aBE608Df1af054a2153763f626A28e92C4bb5","chainid":"5777","blockHeight":3}}